:400000000010002011000000DD020000DD02000008B500F015FA00F063F90000F7B572B6624B01221A70E02200219200604800F0FAFF80220021D2005E4800F0F4FF5E4980
:400040005E48802200F0E6FF0023191C5C4C18592434C2B20192071CFF2297434A00A4180022019ED5B2AE4209D05500665D6519B446BC446D78664635700132F1E7C0B21B
:4000800004330918242BE1D14E4B802252001A804D4B01221A704D4B30221A604C4BC02292041A604B4BEE2212021A604A4B02221A604A4B31211960494B40211960494BC5
:4000C000C02149031960484BD821090119604749474B80201960474B802189021960464BC02109031960454999231B040B6044498005086043490C200B60434B0521196044
:40010000424B06211960424B19780A431A70414A117881430420014311701A7816210A431A703D4A80231168DB020B4313603B4B141C18783A4BC0B219783A4BC9B21A789B
:40014000172A05D9384A58789978033B9342F6D1364B19221860364B05201960354B1A6000F042FC344B05201A78344BD2B21A6000F082FD2268324B13402360314A324BB1
:400180001A60324B30221A60314B10221A60314B802212061A60304A304B1A60304A314B1A60314A314B1A60F7BDC0461C700F4080300F4000400F404410000000300F405E
:4001C000C410000000600F4002600F4000000140040001400C00014000000440080004400001044008010440080304400400990000500F4004500F4008500F4010500F4052
:4002000018500F4030500F402000004000800F4000700F4001700F4000010B40CCF1FF0FCDF1FF0FC9F1FF0FBDF1FF0F1CFF0B4020FF0B402CFF0B40E5F1FF0F28FF0B4087
:40024000FFFFFBFF0600008004010B40200202403002024008010B4033000080000002403F010080400002402B0100C08000024010B5064C2378002B07D1054B002B02D09D
:40028000044800E000BF0123237010BDF0000020000000004010000008B5084B002B03D00748084900E000BF07480368002B03D0064B002B00D0984708BDC0460000000074
:4002C00040100000F4000020D00000200000000008B500F079FB00F08BFAFEE7FEE7000070B51048104B0138421C15D01E685C689D680022A118AA4203D0B158A1500432DD
:40030000F8E7DA680D1C4C1B944202D0002410C1F9E710330138E7E700F056FEFFF7D8FFFEE7C046010000003013000008B500239A00032B02D80D49895800E00C490D48C2
:4003400001338150302BF3D1FFF768FE0A4B00221A600A4B1A68002A00D11A608023DB051A6801210A431A6008BDC04600000000DD02000000000020C8000020C000002040
:40038000004770B5051C0E1C141C002802D0002000F04EFC0020002C05D0013CAA19125D8318D8B2F7E770BD013808B509282AD8C901494200F0F4FD0507090B0D0F16147D
:4003C000181B154B08E0154B12E0154B0DE0154B0EE0154B00E0154BC9180878C0B21AE0134B02E0134B00E0134BC9180FE0134BC9180B7848788A78000212041043184332
:40040000CB781B0606E0002000F012FC00210B7848780002184308BDC07F0000C17F0000C57F0000C97F0000D07F0000D17F0000D67F0000D27F0000D47F0000D87F0000D4
:400440000C4B10B51A6810231A400B4B00D11A601A68802A0DD100240220211C1C60FFF7A3FFA04205D0211C0220FFF79DFFFFF787FF10BD00030B40C0000020F8B5051C22
:40048000291C0320FFF790FF291C041C0420FFF78BFF671CFF013F18291C0320FFF784FF00240130C001261CB84209D203785A1ED2B2FD2A00D801261C19E4B20130F3E7EB
:4004C0000120291CFFF770FF6442E4B20623844203D17242564176423340181CF8BD0000F0B5BB4CA544029000F0B6F962B600250A2403942F1C029B002B00D1FF2305AC54
:40050000962108A84900221C00F0C0F9029E002E03D0039B013BDBB20393039E002E02D00028E8D102E0002800D099E02188062900D83FE108A802780423012A5FD12322F0
:400540006A44222614786E4432782402144302195079E61D844610798E4200D92CE19279172A4CD1E3189BB20022002B09D09EAEF118984E013B891909789BB2521892B2C4
:40058000F3E7614652420B0292B218430823904235D16EE0342B00D0AAE0012D00D009E1032C00D006E153A80021802200F03BFD8027E21E53AD69463C19E8192731A4B262
:4005C00000F028FD832C00D0F1E026266E442521307869440B78000218437F4B019C1B6827021A68C019D30980B29BB2550601D001339BB2012598427FD200270A230021E1
:40060000012008AC20706846213003706B4622336A4600201632197058700B1D11809BB29EAEF4186B4E013BA41924789BB2001980B2002BF4D19EAC684E63189C1940428E
:40064000674E80B220709C19000A2070654807311B181720187089B208A8962300F004F9029C002C00D146E7012D00D0ACE0012541E708AE307901907378181C31380A2802
:4006800001D90523BBE700F095FC0B001800FCFF85FF3E00FCFF4100510085FF5F008700012D00D086E0002C00D083E0201CFFF7E5FE4342434133716BE0012D7AD1012CC8
:4006C00078D1019C002C75D1434B1B681B68DA0BD2B2DB09DBB2002A01D080235B0033711B0A7371FF23B3710023F371042187E7012D5FD1022C5DD95BE753A900F088F9BD
:40070000071E11D079E7012D54D157E0012D51D196233E195B009E424ED853A9C819221C09A900F077FCB7B2002368E7002C41D106AB2D4A191C60CA60C109AA21CB21C295
:4007400008210125231C5BE7012D33D1032C31D1B379019C76791B021E4321027118C90100208022FFF70DFE041C019800280DD1FF2E0BD101990520FFF716FE0199241A6E
:400780000620FFF711FEE4B2241AE4B2644208AB1C710023012133E70020FFF76FFE002802D1124B80221A6000F044FA02E00125002701E0042322E7032320E7029C002708
:4007C000BC4200D197E652E79F239B009D44F0BD84FDFFFFA7FDFFFFD4000020ACFDFFFFADFDFFFFAEFDFFFF04130000C000002038B50020FFF742FE0025A84200D0062538
:40080000134C00202368C0211A68C03AFFF7B9FD62681378181AC0B2984203D123681B68002B02D1002000F003FA0A4C2368402B01D0002D03D000202060FFF751FEC820FB
:40084000FFF74EFE8023236000F0F4F938BDC046D4000020C000002008B500F06BFA00F0C9FA00F01BFB08BDF8B5061C0D1C171C00F0C0FA341C2078013400F0E1FAA31B59
:400880009BB2AB42F7D33D800020F8BDF0B50A255D4385B001900391171C0024AC4214DA00F08CFA00280AD000F088FA041C192000F0CCF900F082FAA042F5D808E0012085
:4008C000013400F0C3F9A4B2E8E70521009101E00022009200243C8000F070FA002825D000F06CFA3B880399C21892B2061C3A808A421AD2251C2B1B9BB2B34209D2019AA9
:400900005219029200F02EFA029B01351870ADB2F1E734190199A4B20B19013B1B78172BDAD0052000F092F9D6E73B80009805B0F0BD00000D4B8022D2041A601A680021F3
:400940001A600B4A11601A681A600A4B0C221A60094B01221A60094B31221A60084BFE221A60084B7F221A607047C04600010540080105402401054038010540280105402A
:40098000140105400C01054038B50C1C051C00F035F8034BA5401D6000F034F838BDC0460800054010B500F029F8064B01241A6822431A6000F026F8201C1821FFF7E4FF1B
:4009C00010BDC0460000054010B5054C2378002B03D1FFF7AFFF01232370FFF7E3FF10BD0C010020000000000230800804D0C0460138FDD1C046C046C0467047EFF310802C
:400A000072B6704780F310887047C046C046C046F0B50024CBB0069404900794FF2800D9A4E0A14200D1A1E008AD8022281C00F0F1FA231C211C221C029498002858002837
:400A400002D01218014302930133202BF5D1002A05D1002900D08EE00191039102E0002001900390484F7F2328AE291C80222AA82897464C736000F0CDFA454A454B266061
:400A800013602168090F0A2903D022680F23134000E000230693069F002F69D1FFF7AEFF3D4A3E4B116807971960069B0590002B14D13B4A04982892289A01040A43289231
:400AC00028AA22603249374A0A602268120F0A2A03D02E4B1A680F2313400693069F002F38D1019A002A35D0391C8022281C00F09AFA0298039A08A983005A50224B2AA8B7
:400B0000289380227F23736000F084FA214820492660086023681B0F0A2B03D01B4B1F680F231F400697069B002B13D11E4A04982892289A01040A43289215491B4A266058
:400B40000A602268120F0A2A03D0104B1A680F2313400693079B002B04D1104A0E481268026007930598FFF74DFF01E00423069306984BB0F0BD02998B00E85801210390B5
:400B8000EA5001916EE7C046B6D7000008000040040000400400008008010B4010010020B6D8000005000080B6D90000060000801F2800D901BE034A800083181868196084
:400BC0007047C0464000002038B5041C0D1E032D00D901BE1F2C00D901BEFFF70FFFA308084A9B009B1803221440944019680634A2409143A5400C1C2C431C60FFF702FFF9
:400C000038BDC04600E400E01F23184001238340181C014B1860704700E100E01F23184001238340181C014B1860704780E100E001BE7047034B04491A6892B20A431A60F5
:400C40007047C0460CED00E00400FA0510B5041C8022074B1202944205D91868FFF7C4FE044BE418F4E758686043FFF7BDFE10BDDC0000200080FFFF08B5034B1B7A584346
:400C8000FFF7B2FE08BDC046DC00002008B510490020FFF78DFF00200321FFF795FF0D4B72221A700C4B20221A700C490220FFF77FFF02200321FFF787FF094B07221A70F4
:400CC000084B48221A70084B02221A7008BDC046D10E000080000F4081000F40410F000023000F4033000F4082000F4038B5FFF785FE0D4B20211A7810240A431A700B4B5C
:400D0000051C1A78002022431A70FFF77DFF084B02201A7814431C70FFF776FF00F036F9281CFFF76FFE38BD90000F4091000F4092000F4010B5054C2378002B03D1FFF729
:400D4000A5FF01232370FFF7D1FF10BD1401002008B50020FFF758FF08BD08B50020FFF75DFF08BD38B5FFF7F8FF114A53789178D078DBB2C9B2002801D18B4211D00D4916
:400D80003F20CC5C00210133DBB20D1C98424D41684203405370D378E4B28B4204D0D17002E0054B1C78E4B2FFF7D2FF201C38BD140100201C01002040000F4010B5FFF7B6
:400DC000CCFF0B4B59789A78914204D1DC78631E9C41A40108E059789A789C785B78914200D34034E41AE4B2FFF7B2FF201C10BD1401002008B5FFF701FE0A4B01221978F0
:400E000011431970197891431970FFF7FBFDFFF7A4FF054B00225A709A70DA701A71FFF797FF08BD90000F401401002008B50220FFF7EAFE08BD08B50220FFF7EFFE08BDD7
:400E400030B512498B794A79D2B2934202D2541E1C1B01E09C1A3F3C65426C41E4B2002CF1D19A4206D10A4A1278540702D4094B187009E000223F249C4252415242134047
:400E8000054AD05401338B7130BDC0461401002062000F4042000F405C01002008B5FFF7ADFD094B0122197811431970197891431970FFF7A7FDFFF7BEFF044B00225A71EF
:400EC0009A71FFF7B3FF08BD92000F401401002010B5144A1378111CDBB29A0621D51248124B1A7804781248D2B2E4B28454114A1078002802D010480124047018780130C6
:400F0000C0B2187018783F2801D90020187018780A4B1B78984201D1012313700B78DBB2DBE710BD61000F4040000F40160100201C0100201701002018010020150100207A
:400F40000D4B0E491A780978914214D00C4A117804220A400FD119783F2900D91A701A780849D2B2895C084AC9B211701A780132D2B21A70E4E77047190100201A01002009
:400F800062000F405C01002042000F40034B8022196812060A431A607047C0460000024002B4714649084900095C49008E4402BC7047C04603B47146490840004900095E72
:400FC00049008E4403BC704770B50E4B0E4D0024ED1AAD101E1CAC4204D0A300F35898470134F8E700F092F9084B094D0024ED1AAD101E1CAC4204D0A300F35898470134B8
:40100000F8E770BD1813000018130000181300002013000010B50023934203D0CC5CC4540133F9E710BD031C8218934202D019700133FAE770470000601300009A0000007D
:401040000000000000100000F3180C000008F300827F0000413C00420F3CF041C36700181C00E30408000000040000030C040000FF000000C01F2C200F401C0000202802CF
:401080000000000463050400010E00C021FFFFFF62A0F0410C00000000000212040404040000000100000000000040020010301000101012000000000000000000000000AB
:4010C0000000000003000F4013300F403C310F4062320F4041330F400B400F4008410F4004430F4002600F4080728138820F83018C0892029A01A004AA01AE02B002B1014B
:40110000B201B408B604BE55D418D604D804D904DB04DF0100440308048009010A260D010F8410801140132815201641180419161A201B401E091F052110220527402820AD
:401140002920311432013340382839C03A023B803D02402141014210430849104B8452015A085D02674A680469046A4070947202732887408A01C087C25FC4DFCA06CC0FE1
:40118000CE8FD00BD20CD682D8B0E680010602030309040906F0071D089C09200A2214301507164C1718181419071B082480251226102701282C2AD1301F3101331E34E0CD
:4011C000352037203A203B083F414034410245EB47C0482349FF4AFF4BFF4EF04F44500C54015604580459045A045B045F0166C06A406B0284E7871789188B038C448E313C
:401200009080951897059801990E9A0EA022A251A4E7A902B060B280B318B407B507B618B908BBA0BE40BF04C003C501C705C811C9FFCA07CBFFCC40CD20CEF0CF05D0085F
:40124000D804D904DA04DF01E040E1A8E240E32000480404051106400A440D080F0811061520161018411A141D111F102174222024042508260827822A102B082F103118B5
:401280003628380439203C243F0241044528470248104C404D014F08530857015D115E085F806780874089108B019104924094C1958096149E40A004A101A204A921C07599
:4012C000C26AC46CCA44CC66CEE6D0E2D6F0D880E61003405F106E80712086408B10C010D620DA80DC20E640620485208E04A520AB40D840E210EC8018808C40C608E60821
:40130000100111019311C804111E0101F8B5C046F8BC08BC9E467047990200002D030000F8B5C046F8BC08BC9E4670477102000040130000D000002020000000B00000000C
:4013400000000000381000003C1000000000E02EC05D00001800000000366E01000000000000000000000000000000000000000000000000000000000000000000000000F1
:401380000010002091130000191700001917000008B5024B83F3088800F0D8F90010002010B5184C22688023DB0213432360182000F020FB2268144B13402360134A144B2E
:4013C0001A602022134B1A601022134B1A603022124B1A6080221206114B1A60114A124B1A60124A124B1A60124A134B1A600920124900F0CDFA092000F0BEFA0022104B74
:401400001A6010BD00010B40FFFFFBFF0600008004010B4008020240200202403002024008010B401700008000000240CF000080400002405F09008080000240091C00005A
:401440000C020B4038B572B601223C4B1A7000243B4D0CE063001B195B00EB1899881A8858880004104300F0DFF90134E4B2012CF0D93349081C0C30283100F0B9F9802241
:401480005200304B1A8001212F4B1970C022D2012E4B1A60EE2212022D4B1A6099222D4B1A602D4B2D4A1360802000062C4A1060992000042B4A1060802080032A4A10609E
:4014C0002A4A136080221203294B1A60294A2A4B1A602A4B19600222294B1A60294B1C78022020431870284804783C25AC4314252C4304701C78162020431870D020234B7E
:4015000018602348234B18600C20234B18602348234B18600820234B1860234B19602349234B1960234B1A603121234B1960234B1A60FFF735FF00F09DF938BD1C700F40AE
:40154000AC28000000600F4002600F40080001400C000140100001400400990010500F4014500F4020500F4024500F4030500F4034500F401A0A0A00200105402000004039
:4015800000800F4000700F4001700F400001044000705B000801044000020440B06000000802044018020440000304409E0D00000803044000040440080404401804044045
:4015C00010B5064C2378002B07D1054B002B02D0044800E000BF0123237010BD58010020000000006028000008B5084B002B03D00748084900E000BF07480368002B03D074
:40160000064B002B00D0984708BDC04600000000602800005C010020D00000200000000008B500F05DFC0122014B1A7008BDC0467401002008B500F059FB00F017FC01203B
:40164000182100F0E7FB034800F050FC00F06EF962B608BD2116000000B583B0021C6846034900F0EFFC684600F0A2FB03B000BD6428000070B5FFF7DDFF154C261C154D5F
:401680002378002BFCD000233370281C00F090FB114800F08DFB012000F020F8002000F005FB012000F0F2FB012000F02DFC462000F07EF9002000F0E9FB462000F078F949
:4016C00000F0A0FB80B2FFF7C7FF00F003FCD7E7740100206C2800008C28000008B50D4B1860012804D0002810D0022807D010E0062000F0D1F8002000F0C2F809E00620AC
:4017000000F0CAF8012000F0BBF802E0002000F0C3F808BDD4000020FEE7C04608B5094B1B681818084A821A802A02DC054A106005E000F053FC0C23036001235B42181C3E
:4017400008BDC046D8000020A8010020F8B50F4F0F4E002412E031687368B568221C02E001C901C30432AA42FAD1F168221C01E010C304328A42FBD11036013F002FEAD1AA
:4017800000F032FCFFF776FFFEE7C04601000000B029000038B50023104C114D114808E0032B02D89A00515900E0211C9A00115001332F2BF4D9FFF745FE00220A4B1A60E7
:4017C0000A4B1B68002B01D1084B1A608023DB05196801220A431A6038BDC046191700008013000000000020C8000020C0000020F0B500220027FF239C4611E0BB00C658F7
:40180000F3B26446A64308E054000C192578AD1964782C700132013BDBB2002BF4D10137062FEBD9F0BDC04608B50A1C002100F001FC08BD0C4B1B68002803D0802212061F
:401840001A4301E05A005208074B1A60074B1B68002803D0802292041A4301E0044A1A40024B1A607047C04680031A4008010B40FFFFFFFD08B50120FFF7DCFF08BDC04693
:40188000044B1968FD220A4040000221084010431860704700020440044B196838229143C200081C104318607047C0460802044010B500F057F80D4B19680F2291430C4A8A
:4018C00014780F2222400A431A600A4A13681360094B1C6809492140196014687821214311601A681A6000F041F810BD00FF084060F1FF0F0800084004000840FFFFFEFFA3
:4019000008B500F02FF8074B1968C02292000A431A60054B1968802212060A431A6000F025F808BD080008400400084008B5064B1B68002B04D1FFF7BBFF0122024B1A60DA
:40194000FFF7DEFF08BDC04678010020000000000230800804D0C0460138FDD1C046C046C0467047EFF3108072B6704780F310887047C046C046C0461F2318400123834026
:40198000181C014B1860704700E100E001BE704738B5041C0D1C1F2802D90020FFF7F6FFA400024BE4182068256038BD4000002070B5041C80252D02074E04E03068FFF7AF
:4019C000C7FF064BE418AC42F8D8034B58686043FFF7BEFF70BDC046DC0000200080FFFF08B5034B1B7A5843FFF7B2FF08BDC046DC000020F0B557464E464546E0B4041C47
:401A0000FFF7B0FF8046E51E2D2D73D83F4B1B78DBB2A34208D33E4B1B78DBB29A463D4B1B78DBB2994631E03B4B1B78DBB2A34208D33A4B1B78DBB29A46394B1B78DBB279
:401A4000994623E0374B1B78DBB2A34208D3364B1B78DBB29A46354B1B78DBB2994615E0334B1B78DBB2A34208D3324B1B78DBB29A46314B1B78DBB2994607E02F4B1B78E3
:401A8000DBB29A462E4B1B78DBB299462D4B5E5D2F2E09D92A2C07D919222B4B1A600520FFF756FF192703E0274B1F683F231F40BE4206D2234B5A5D234B1A600520FFF721
:401AC00047FF1F4AA4182278D2B2204B1A60204B52461A601F4B4A461A600520FFF780FFBE420AD9174B5A5D174B1A600520FFF72FFF02E00020FFF749FF4046FFF736FFDB
:401B00001CBC90469946A246F0BDC046C0F1FF0FC1F1FF0FC2F1FF0FC3F1FF0FC4F1FF0FC5F1FF0FC6F1FF0FC7F1FF0FC8F1FF0FC9F1FF0FCAF1FF0FCBF1FF0FCCF1FF0F7C
:401B4000CDF1FF0F242900002CFF0B4028FF0B401CFF0B4020FF0B40044B1A68C0231B021A4201D0012000E00020704700010B4008B5FFF7F7FE044B1968C02212020A43B7
:401B80001A60FFF7F3FE08BD00010B4010B5FFF7E9FE084B1968084A11408024E4012143196019680A40802109020A431A60FFF7DDFE10BD00010B40FF3FFFFF38B5051CC2
:401BC000FFF7D0FE041CFFF7C7FF002803D0FFF7DDFF012200E00022084B1D40084B1868084901400D431D601B68012A01D1FFF7BFFF201CFFF7BAFE38BDC046040404004C
:401C000010020B40FBFBFBFF10B5244B1B685A0715D5234B1B685A070ED5224B9C69042214401F490868A0430860996991439961DB68002B00D098470420FFF7BFFF174BEA
:401C40001B685A0518D5164B1B685A0510D5154B9A698020C0001040114A1168814311609969114A0A409A611B69002B00D098478020C000FFF7A2FF084B1B685A030CD546
:401C8000074B1B685A0304D5064B5B69002B00D098478020C002FFF791FF10BD10020B40EC0000207C010020FFFBFFFF044B1968BF220A40800140210840104318607047D0
:401CC0000001044008B500F069F808BD08B500F01DF808BD08B5044B1968802212060A431A60FFF7EFFF08BD0000064008B5064B1B78002B04D1FFF7E9FF0122024B1A70CF
:401D0000FFF7E8FF08BDC0469801002010B5124A124B1A600023124A13600121114A1160114A12480260072411480460114803601148016011490A60114A1360114A136095
:401D4000114A1360114A1360114A1360114A1360114A136010BDC0460B000002000006404000064048000640070000800003064004030640100306404400064000020640DB
:401D800004020640880E0640C80E0640480F0640080F0640C80F0640880F0640034B1A68F0218A4390210A431A6070471000014038B5051C002402E000F0B2F80134285D55
:401DC0000028F9D138BDC04608B5FFF7CBFD044B196801220A431A60FFF7C8FD08BDC046000005400004000C014B18607047C046080105400004000C014B18607047C04686
:401E000014010540024B18680004000C7047C0460C01054038B5051C0C1CFFF7A3FDA540024B1D60FFF7A2FD38BDC04608000540014B18607047C0463801054008B58022A6
:401E40009204074B1A600D22064B1A600020FFF7EFFF0548FFF7CEFF0020FFF7C3FF08BD0001054024010540FFFF000008B5064B1B78002B04D1FFF7E1FF0122024B1A7036
:401E8000FFF7A2FF08BDC04699010020044B1968EF220A4000011021084010431860704700010440014B18647047C0460000002010B5041CFFF756FD054B1968C022914340
:401EC000A2010C1C14431C60FFF750FD10BDC04600E400E00122014B1A60704700E100E00122014B1A60704780E100E010B5041CFFF7F6FF201CFFF7D5FF0320FFF7D8FF62
:401F0000FFF7E8FF10BDC046044B1968DF220A404001202108401043186070470001044004490F220B681340082BFBD0024B18607047C0460802064040020640002934D07C
:401F40000123002210B488422CD301242407A14204D2814202D209011B01F8E7E400A14204D2814202D249005B00F8E7884201D3401A1A434C08A04202D3001B5C082243EE
:401F80008C08A04202D3001B9C082243CC08A04202D3001BDC082243002803D01B0901D00909E3E7101C10BC7047002801D00020C04307B4024802A14018029003BDC046D4
:401FC000190000000029F0D003B5FFF7B9FF0EBC4243891A1847C0467047C046014B18687047C0465001002070B50E4B0E4D0024ED1AAD101E1CAC4204D0A300F3589847E1
:402000000134F8E700F0C2FC084B094D0024ED1AAD101E1CAC4204D0A300F35898470134F8E770BD982900009829000098290000A0290000031C8218934202D0197001331A
:40204000FAE770470EB400B59CB01DAB04CB822202A992008A810A4A02908A604A6101225242CA81074A086110681D9A019300F06BF8029A002313701CB008BC03B0184751
:40208000FFFFFF7F50010020F0B58D6885B0071C0C1C03920193AB4245D390228B89D20013423DD062690326564309692068F20F401A96190290021C019801321218761034
:4020C000964200D2161C381C5A050FD5311C00F02BFB051E13D0029A216900F0BAFAA289184B134080221343A38111E0321C00F06FFB051E0CD1381C216900F0CDFA0C23E0
:402100003B60A389402213430120A381404217E0029B2561ED1825606661019DF61AA6600198A84200D2019D2A1C2068039900F099FAA2680020531BA36023685D19256039
:4021400005B0F0BD7FFBFFFFF0B59FB0039005938B890E1C171C19060FD53269002A0CD1402100F0E1FA30603061002803D103990C230B60C9E04023736106AD00236B614F
:4021800020236B763023AB763C1C2378002B03D1E21B029211D003E0252BF9D00134F4E70398311C3A1C029BFFF76EFF013000D1A6E06969029A8B186B612378002B00D1DD
:4021C0009EE0012252426A606A4600235B3201342B60EB60AB601370AB654E4F2178381C052200F02BFA002807D0C71B2B680120B840184328600134EFE72B68D90603D54C
:402200006A4620215B3211701A0703D56A462B215B32117022782A2A01D0099B0EE0059A111D12680591002A01DB099204E05242EA60022213432B60013409E02278303AE4
:40224000092A04D80A214B4301349B18F6E7099323782E2B18D163782A2B09D1059B02341A1D1B680592002B0DDA01235B420AE0013400232278303A092A04D80A214B4346
:4022800001349B18F6E70793234F2178381C032200F0D4F9002806D0C71B2B684020B84018432860013421781C480622671C297600F0C4F9002812D0194B002B06D1059B97
:4022C0000722073393430833059314E005AB00930398291C321C134B00E000BF07E005AB00930398291C321C0E4B00F091F804900499013104D06A69049953186B6143E73E
:40230000B3895A0601D40B9801E0012040421FB0F0BDC046562900005C290000602900000000000089200000F7B5151C01930A698B68061C0C1C934200DA131C221C2B6085
:4023400043321278002A01D001332B602068800602D52B6802332B60216806270F401FD0231C43331B785A1E9341226892061FD5E11840313020C870211C5A1C4531097832
:40238000A21840320233D17012E0221C301C019919320123089FB847013011D0009F01370097E0682968009F431A9F42EDDBD7E7221C301C01994332089FB847013002D151
:4023C0000120404223E0206806212B68E26801400025042903D1D51AEB43DB171D40A26823699A4201DDD31AED1800270097009FAF420BDA221C301C01991A320123089F28
:40240000B8470130DCD0009F0137EFE70020FEBDF0B50D1C8BB0433506920590079304950B7E0C1C109A6E2B00D1A7E011D8632B22D009D8002B00D1B0E0582B00D0C0E042
:4024400045310B707B4D4EE0642B1CD0692B1AD0B7E0732B00D1A5E009D86F2B29D0702B00D0AEE00E68202333430B6036E0752B1FD0782B32D0A4E013680D1C191D4235CB
:4024800011601B689FE0216813680E0603D5191D11601E6805E04806F9D5191D116000215E5E644B002E3BDA049D2D2276422A7036E0216813680E0603D5191D11601E68A0
:4024C00004E04806F9D5191D1E881160594B227E039308276F2A1ED00A271CE0231C78214533554D197011682368081D039510601E0601D50E6802E05806FBD50E88D90730
:4025000002D52022134323601027002E03D1226820239A432260231C002243331A7001E003930A276368A360002B03DB2568042295432560002E02D1049D002B0ED0049D08
:40254000301C391CFFF73EFD0398013D435C301C2B70391CFFF7F2FC061EF1D1082F09D12168C90706D5626823699A4202DC013D30232B70049E731B23612AE008681368E1
:402580004969050604D5181D10601B68196005E04606F8D5181D10601B68198000232361049D16E01368191D11601D68281C00F047F963682061984200D923612069606000
:4025C00004E0251C42352B7001232361049E00233370079E05980096211C09AA069BFFF7A3FE013002D10120404221E02A1C059806992369079DA8470130F4D02668B6070B
:4026000005D4099BE068984212DA181C10E00025E0680999431A9D42F3DA221C0598069919320123079EB0470130DCD00135EFE70BB0F0BD6729000078290000C9B28218B7
:40264000904204D003788B4202D00130F8E70020704710B50023934203D0CC5CC4540133F9E710BD70B5814201D300230CE08C18A042FAD28518131C013B0BD351426618EE
:40268000F65C6918CE54F7E7934203D0CC5CC4540133F9E770BD000030B5002940D004390B68002B00DAC9181E4A1368141C002B02D14B60116033E099420FD208680A18DC
:4026C0009A4205D113685268C01808604A6000E04B60216024E08A4203D8131C5A68002AF9D11D685C198C420BD10968691858181960904214D114685268091919605A60AC
:402700000EE08C4202D90C23036009E008680C18944203D114685268001908604A60596030BDC046A001002070B50323CD1C9D430835061C0C2D01D20C2501E0002D3FDBA3
:402740008D423DD3204B1C681A1C211C002913D00868431B0DD40B2B02D90B60CC181EE08C4202D1636813601AE0486860600C1C16E00C1C4968E9E7144C2068002803D10B
:40278000301C00F04BF82060301C291C00F046F8431C15D0C41C03239C4384420AD12560201C0B300722231D9043C31A0BD05A42E25008E0211A301C00F030F80130EED15C
:4027C0000C233360002070BDA00100209C010020F8B5061C0C1C151C002904D1111CFFF7A3FF041C18E0002A03D1FFF755FF2C1C12E000F02CF8A8420ED2301C291CFFF762
:4028000093FF071E07D0211C2A1CFFF722FF301C211CFFF741FF3C1C201CF8BD38B5074C0023051C081C2360FEF778FF431C03D12368002B00D02B6038BDC046A4010020CD
:402840000023C25C0133002AFBD1581E704704390B68181F002B02DAC8581B18181F70470000000025640D0A000000005374617274696E672054657374696E672050726F56
:402880006365647572650D0A000000003D3D3D3D3D3D3D3D3D3D3D3D3D3D3D3D3D3D3D3D3D3D3D3D3D3D0D0A0000000000300F40000400400F40000406320F4009330F4018
:4028C00002400F4007410F4004420F4009430F4002600F401A01360138283E1458045F010E081C101D201F80878089208C108E04C2406F20DA800E0442048720A720C28020
:40290000D010E61050047410D404DC02040288108C059408A410C004E008E202E401100111010000030405060708090A0B0C0E0F101112131415161718191B1C1D1E1F2036
:4029400021222325262728292A2B2E2F30313233343500004300232D302B2000686C4C006566674546470030313233343536373839414243444546003031323334353637DD
:40298000383961626364656600000000F8B5C046F8BC08BC9E467047E915000095170000F8B5C046F8BC08BC9E467047C1150000C0290000D0000020880000005000000094
:4029C0000000000001000000A80100200000E02EC05D00001800000000366E0104040400000000000000000000000000000000000000000000000000000000000000000019
:402A00005429000000000000000000000000000000000000000000000000000000000000000000000000000000000000000000000000000000000000000000000000000019
:402A4000F000002000000000000000000000000000000000000000000000000000000000000000000000000000000000000000000000000000000000000000000000000046
:402A80000000000000000000000000000000000000000000000000000000000000000000000000000000000000000000000000000000000000000000000000000000000016
:402AC00000000000000000000000000000000000000000000000000000000000000000000000000000000000000000000000000000000000000000000000000000000000D6
:402B00000000000000000000000000000000000000000000000000000000000000000000000000000000000000000000000000000000000000000000000000000000000095
:402B40000000000000000000000000000000000000000000000000000000000000000000000000000000000000000000000000000000000000000000000000000000000055
:407FC0002C91130000260000000017000000000000000000000000000000000000000000000000000000000000000000000000000000000000000000000000000000000074
:0200000490303A
:02000000980165
:0200000490402A
:200000000000000000000000000000000000000000000000000000000000000000000000E0
:0200000490501A
:0C000000000204C81193110104D5A9945A
:0200000490600A
:0100000001FE
:00000001FF